:100000000C9463000C948B000C948B000C94F20302
:100010000C94F2030C94F2030C948B000C948B0060
:100020000C948B000C948B000C948B000C9431037B
:100030000C948B000C948B000C948B000C948B0014
:100040000C94E7020C948B000C948B000C948B00A6
:100050000C948B000C948B000C948B000C948B00F4
:100060000C948B000C948B000000000024002700EF
:100070002A0000000000250028002B0000000000DE
:1000800023002600290004040404040404040202DA
:100090000202020203030303030301020408102007
:1000A0004080010204081020010204081020000012
:1000B0000008000201000003040700000000000027
:1000C00000002006A80611241FBECFEFD8E0DEBF37
:1000D000CDBF11E0A0E0B1E0E6EEFEE002C0059089
:1000E0000D92A432B107D9F721E0A4E2B1E001C03A
:1000F0001D92AB3BB207E1F710E0C2E6D0E004C0CE
:100100002197FE010E945B07C136D107C9F70E9403
:100110006C040C9466070C940000CF92DF92EF926F
:10012000FF92DC01A03282E0B8070CF03EC0B7FDC0
:1001300006C0A53BB1052CF0A4EBB0E002C0A0E0E6
:10014000B0E08091B90128E830E06901C81AD1080F
:1001500087FDD394CC0CDD1CCC0CDD1C0D2C000CCD
:10016000EE08FF088091BA0128E532E0281B31092A
:1001700087FD3395220F331F220F331FA901330F41
:10018000660B770B9A01AB012C193D094E095F09EB
:100190000E94EE0624EB30E040E050E00E94C406EE
:1001A000C20ED31EE41EF51ED6019091B8019C30FC
:1001B00098F58091B90148E850E0481B510987FD46
:1001C0005395440F551F440F551FA417B5078CF0C6
:1001D0008091BA0128E532E0281B310987FD33956B
:1001E000220F331F220F331FAD012A173B070CF4D8
:1001F000A90142505109440F551F2FB7F894892F78
:1002000090E0FC01EE0FFF1F8E0F9F1FFC01EC56CC
:10021000FE4F528341832FBFFF90EF90DF90CF902E
:100220000895833081F028F4813099F08230A1F074
:1002300008958730A9F08830B9F08430D1F48091E6
:1002400080008F7D03C0809180008F778093800035
:10025000089584B58F7702C084B58F7D84BD0895DD
:100260008091B0008F7703C08091B0008F7D809324
:10027000B0000895CF93DF93282F30E0F901E255C5
:10028000FF4F8491F901E656FF4FD491F901EA57E7
:10029000FF4FC491CC2391F081110E941101EC2FEA
:1002A000F0E0EE0FFF1FE458FF4FA591B491EC91E1
:1002B000ED2381E090E021F480E002C080E090E056
:1002C000DF91CF9108951F93CF93DF93282F30E0D4
:1002D000F901E255FF4F8491F901E656FF4FD491A1
:1002E000F901EA57FF4FC491CC23C1F0162F8111B9
:1002F0000E941101EC2FF0E0EE0FFF1FEE58FF4FB0
:10030000A591B4919FB7F894111104C08C91D09528
:10031000D82302C0EC91DE2BDC939FBFDF91CF91FD
:100320001F910895CF93DF9390E0FC01E656FF4FB5
:100330002491FC01EA57FF4F8491882361F190E0FA
:10034000880F991FFC01E859FF4FC591D491FC011A
:10035000EE58FF4FA591B491611109C09FB7F89471
:100360008881209582238883EC912E230BC06230F4
:1003700061F49FB7F8948881322F30958323888366
:10038000EC912E2B2C939FBF06C08FB7F894E88179
:100390002E2B28838FBFDF91CF9108953FB7F8941C
:1003A0008091710190917201A0917301B0917401DB
:1003B00026B5A89B05C02F3F19F00196A11DB11DC0
:1003C0003FBFBA2FA92F982F8827820F911DA11DFB
:1003D000B11DBC01CD0142E0660F771F881F991F38
:1003E0004A95D1F70895CF92DF92EF92FF920F9343
:1003F0001F93CF93DF936C017A018B01C0E0D0E0B3
:10040000CE15DF0581F0D8016D918D01D601ED91FA
:10041000FC910190F081E02DC6010995892B11F026
:100420002196EECF7E01C701DF91CF911F910F91F1
:10043000FF90EF90DF90CF90089520916801309168
:1004400069012817390771F490916601809167015D
:10045000981741F0E0916601F0E0EC5DFE4F80817D
:1004600090E008958FEF9FEF089508951F93CF9325
:10047000DF93DC015C968D919C915D97009739F438
:1004800021E030E013963C932E9312973BC0519697
:10049000ED91FC91529750962C915097322F3095B8
:1004A0001FB75E964C915E97742F727041FD6095F8
:1004B000F8944081772311F0422B01C043234083FD
:1004C000EC012197F1F748E0508160FF02C0522B08
:1004D00001C053235083EC012197F1F766954150F9
:1004E00099F78081772319F08323808302C0282B1A
:1004F00020831FBF5C968D919C915D970197F1F7CA
:1005000081E090E0DF91CF911F91089520916801E3
:10051000309169012817390771F4809167012091A2
:10052000660190E0805C9F4F821B910960E470E05F
:100530000E943307089580E090E0089520916801BB
:100540003091690128173907B9F4909166018091BB
:100550006701981789F0E0916601F0E0EC5DFE4FCD
:1005600080812091660130E02F5F3F4F2F7333274A
:100570002093660190E008958FEF9FEF089508950E
:1005800080E090E00895CF93DF93009779F0FC012D
:1005900001900020E9F73197AF01481B590BBC01CE
:1005A00085E791E00E94F301EC0102C0C0E0D0E0D9
:1005B00042E050E062E171E085E791E00E94F301E2
:1005C0008C0F9D1FDF91CF9108950E9461071F92AC
:1005D0000F920FB60F9211242F933F938F939F93F7
:1005E000AF93BF9380916D0190916E01A0916F01C7
:1005F000B091700130916C0123E0230F2D3720F46E
:100600000196A11DB11D05C026E8230F0296A11D6C
:10061000B11D20936C0180936D0190936E01A093A6
:100620006F01B09370018091710190917201A0915E
:100630007301B09174010196A11DB11D80937101E8
:1006400090937201A0937301B0937401BF91AF9125
:100650009F918F913F912F910F900FBE0F901F9000
:1006600018951F920F920FB60F9211242F933F935C
:100670004F935F936F937F938F939F93AF93BF93AA
:10068000EF93FF938091650187FF05C0109285006D
:10069000109284001BC020916501022E000C330BC8
:1006A0008091640190E02817390784F480916501F6
:1006B000082E000C990BFC01EE0FFF1F8E0F9F1FE1
:1006C000FC01EC56FE4F808186FD15C080916501CE
:1006D0008F5F8093650120916501022E000C330B22
:1006E0008091640190E028173907C4F48091650176
:1006F0008C3064F113C080916501082E000C990BB9
:10070000FC01EE0FFF1F8E0F9F1FFC01EC56FE4FEA
:10071000808160E08F730E946301D8CF8091840054
:1007200090918500049680349C4918F480E49CE9FB
:1007300005C0809184009091850004969093890073
:10074000809388008FEF809365013BC020918400E7
:100750003091850080916501082E000C990BFC01F9
:10076000EE0FFF1F8E0F9F1FFC01EC56FE4F818185
:100770009281820F931F90938900809388008091CB
:100780006501082E000C990BFC01EE0FFF1F8E0F68
:100790009F1FFC01EC56FE4F808186FF12C08091A6
:1007A0006501082E000C990BFC01EE0FFF1F8E0F48
:1007B0009F1FFC01EC56FE4F808161E08F730E9409
:1007C0006301FF91EF91BF91AF919F918F917F91C5
:1007D0006F915F914F913F912F910F900FBE0F90AE
:1007E0001F9018951F920F920FB60F9211242F93FE
:1007F0003F934F935F936F937F938F939F93AF93A9
:10080000BF93EF93FF93E0916801F09169013097F6
:1008100009F451C0968DA685B785858591FF04C0E2
:100820009C91892329F447C09C91892309F043C0F6
:10083000A389B4899C918589809589238C93868925
:1008400097890197F1F7608D718DA685B7855585DC
:1008500038E020E0CB010197F1F7822F90E09595E9
:100860008795282F4C91452309F02068315091F746
:10087000868D81FD20958091670190E001968F73B0
:10088000992730916601381749F0A0916701B0E0CF
:10089000AC5DBE4F2C938093670103C0868D816051
:1008A000868F828D938D0197F1F7A389B4899C91EE
:1008B0008589892B8C93FF91EF91BF91AF919F9187
:1008C0008F917F916F915F914F913F912F910F90F9
:1008D0000FBE0F901F901895789484B5826084BDE8
:1008E00084B5816084BD85B5826085BD85B5816034
:1008F00085BD80916E00816080936E0010928100B2
:10090000809181008260809381008091810081606C
:10091000809381008091800081608093800080912D
:10092000B10084608093B1008091B00081608093B9
:10093000B00080917A00846080937A0080917A0080
:10094000826080937A0080917A00816080937A003F
:1009500080917A00806880937A001092C1008AE5C5
:1009600090E090936B0180936A0110929001109235
:100970008F0110928E0110928D0110928C011092B5
:100980008B018DE991E09093920180939101909178
:100990008101963108F058C02DEB30E030938C0186
:1009A00020938B012BE931E030938E0120938D0150
:1009B0002CE231E03093900120938F014091680048
:1009C000983058F031E09E3008F430E021E0822F7A
:1009D00001C0880F3A95EAF701C084E0842B809328
:1009E0006800983038F09E3040F0963148F020E0B2
:1009F00030E008C02DE630E005C02BE630E002C054
:100A00002CE630E03093890120938801983030F44F
:100A100081E001C0880F9A95EAF70EC0292F30E0D7
:100A20009E3018F42850310902C02E50310981E05F
:100A300001C0880F2A95EAF780938A01809191017D
:100A4000909192010197F1F780918F01909190011F
:100A5000892B49F1E0916801F091690121E0E537C6
:100A6000F20709F1309739F0A389B4899C918589FF
:100A7000809589238C93809193018E7F809393013D
:100A8000109267011092660185E791E090936901E9
:100A900080936801E0918801F091890190818091B3
:100AA0008A01892B80838091B8018C3008F051C075
:100AB00061E086E00E9492018091B801E82FF0E0A9
:100AC0009F01220F331FE20FF31FEC56FE4F908160
:100AD000907C966090831092B9011092BA016CE0FC
:100AE0000E9427079CE0899FB001112440E050E05C
:100AF0009B01240F351FF901EE0FFF1F2E0F3F1F23
:100B0000F901EC56FE4F908196FD16C04F5F5F4F86
:100B10004C30510569F781110FC01092800082E0BE
:100B2000809381001092850010928400B19A809188
:100B30006F00826080936F00E091B801F0E0CF0118
:100B4000880F991FE80FF91FEC56FE4F80818064D3
:100B5000808360E08EE00E94920160E08FE00E945E
:100B6000920180916A0190916B010E948D00C4EB0B
:100B7000D0E000E010E08EE00E943A01019791F48D
:100B80008AE191E00E94C30280916A0190916B0119
:100B90000196BE010E94330790936B0180936A0116
:100BA0000E948D008EE00E943A010197D9F38FE0F8
:100BB0000E943A01019791F485E191E00E94C302FD
:100BC00080916A0190916B010197BE010E943307E9
:100BD00090936B0180936A010E948D008FE00E94C8
:100BE0003A010197D9F30E94CE014B015C0184E1E7
:100BF000C82ED12CE12CF12C0E94CE01DC01CB01BE
:100C000088199909AA09BB09883E9340A105B10535
:100C100098F321E0C21AD108E108F10888EE880EA5
:100C200083E0981EA11CB11CC114D104E104F1049D
:100C300019F70115110509F49ECF0E9400009BCF02
:100C4000109278011092770188EE93E0A0E0B0E076
:100C50008093790190937A01A0937B01B0937C01FA
:100C600084E091E0909376018093750110928C015D
:100C700010928B0110928E0110928D0110929001B2
:100C800010928F0110929201109291016091930144
:100C90006E7F6D7F609393016695617081E0682738
:100CA0008DE00E94630161E08DE00E949201E7EA1D
:100CB000F0E0E491E0938501E3E9F0E0E491F0E015
:100CC000EE0FFF1FEE58FF4F85919491909387018F
:100CD0008093860160E08CE00E94920180919301F4
:100CE00081FD04C061E08CE00E9463018CE0809390
:100CF0008101E6EAF0E0E491E0938201E2E9F0E0CC
:100D0000E491F0E0EE0FFF1FE458FF4F85919491BE
:100D10009093840180938301809164018C30A0F4CE
:100D200091E0980F909364018093B80190E0FC01EA
:100D3000EE0FFF1F8E0F9F1FFC01EC56FE4F88EB3E
:100D40009BE09283818308958FEF8093B80108958B
:100D500084E091E090937601809375018091680121
:100D6000909169018557914071F4E0918801F0916B
:100D70008901908180918A018095892380831092D6
:100D80006901109268010895052E97FB1EF40094E6
:100D90000E94DB0657FD07D00E94F60607FC03D031
:100DA0004EF40C94DB0650954095309521953F4FBD
:100DB0004F4F5F4F089590958095709561957F4F47
:100DC0008F4F9F4F08950E941807A59F900DB49FC5
:100DD000900DA49F800D911D11240895B7FF0C94D0
:100DE000E3060E94E306821B930B0895A1E21A2EEC
:100DF000AA1BBB1BFD010DC0AA1FBB1FEE1FFF1FBF
:100E0000A217B307E407F50720F0A21BB30BE40B0E
:100E1000F50B661F771F881F991F1A9469F7609555
:100E20007095809590959B01AC01BD01CF0108950F
:100E3000A29FB001B39FC001A39F700D811D11241B
:100E4000911DB29F700D811D1124911D0895991B54
:100E500079E004C0991F961708F0961B881F7A95B1
:100E6000C9F78095089597FB072E16F4009407D0D4
:100E700077FD09D00E94470707FC05D03EF4909506
:100E800081959F4F0895709561957F4F0895AA1B96
:100E9000BB1B51E107C0AA1FBB1FA617B70710F065
:100EA000A61BB70B881F991F5A95A9F78095909597
:100EB000BC01CD010895EE0FFF1F0590F491E02DC8
:100EC000099481E090E0F8940C94660710E0C2E683
:100ED000D0E004C0FE010E945B072196C336D10713
:060EE000C9F7F894FFCFF2
:100EE600000000003602F301C002350286029E02AF
:100EF6001D020D0A00416E746920436C6F636B77A7
:040F060069736500A6
:00000001FF
