:100000000C945D000C9485000C9485000C94850084
:100010000C9485000C9485000C9485000C9485004C
:100020000C9485000C9485000C9485000C9443017D
:100030000C9485000C9485000C9485000C9485002C
:100040000C94F9000C9485000C9485000C948500A8
:100050000C9485000C9485000C9485000C9485000C
:100060000C9485000C9485000000000024002700FB
:100070002A0000000000250028002B0004040404CE
:100080000404040402020202020203030303030342
:10009000010204081020408001020408102001021F
:1000A00004081020000000080002010000030407FB
:1000B0000000000000000000760311241FBECFEFF7
:1000C000D8E0DEBFCDBF11E0A0E0B1E0E2E1F8E0B2
:1000D00002C005900D92A030B107D9F721E0A0E051
:1000E000B1E001C01D92A433B207E1F710E0CDE505
:1000F000D0E004C02197FE010E940104CC35D10755
:10010000C9F70E9404020C9407040C94000090E0CC
:10011000FC01EC55FF4F2491FC01E057FF4F349157
:10012000FC01E458FF4FE491EE2309F43CC0222384
:1001300039F1233091F038F42130A9F0223001F563
:1001400084B58F7D12C0273091F02830A1F0243083
:10015000B9F4809180008F7D03C0809180008F77FB
:10016000809380000DC084B58F7784BD09C08091D5
:10017000B0008F7703C08091B0008F7D8093B00076
:10018000F0E0EE0FFF1FEE58FF4FA591B4919FB71F
:10019000F894611104C08C913095382302C0EC9121
:1001A0003E2B3C939FBF08953FB7F8948091300158
:1001B00090913101A0913201B091330126B5A89BF5
:1001C00005C02F3F19F00196A11DB11D3FBFBA2FE9
:1001D000A92F982F8827820F911DA11DB11DBC0149
:1001E000CD0142E0660F771F881F991F4A95D1F70E
:1001F00008951F920F920FB60F9211242F933F93E1
:100200008F939F93AF93BF9380912C0190912D0179
:10021000A0912E01B0912F0130912B0123E0230FEB
:100220002D3720F40196A11DB11D05C026E8230F2E
:100230000296A11DB11D20932B0180932C01909358
:100240002D01A0932E01B0932F0180913001909148
:100250003101A0913201B09133010196A11DB11D70
:100260008093300190933101A0933201B093330118
:10027000BF91AF919F918F913F912F910F900FBEA2
:100280000F901F9018951F920F920FB60F92112486
:100290002F933F934F935F936F937F938F939F938E
:1002A000AF93BF93EF93FF938091010187FF05C048
:1002B00010928500109284001BC020910101022E33
:1002C000000C330B8091000190E02817390784F46B
:1002D00080910101082E000C990BFC01EE0FFF1F0D
:1002E0008E0F9F1FFC01EE5FFE4F808186FD15C0C3
:1002F000809101018F5F8093010120910101022E05
:10030000000C330B8091000190E028173907C4F4EA
:10031000809101018C3064F113C080910101082E9D
:10032000000C990BFC01EE0FFF1F8E0F9F1FFC01AD
:10033000EE5FFE4F808160E08F730E948700D8CF10
:100340008091840090918500049680349C4918F433
:1003500080E49CE905C0809184009091850004961A
:1003600090938900809388008FEF809301013BC0B8
:10037000209184003091850080910101082E000CAD
:10038000990BFC01EE0FFF1F8E0F9F1FFC01EE5F0C
:10039000FE4F81819281820F931F909389008093F9
:1003A000880080910101082E000C990BFC01EE0FD2
:1003B000FF1F8E0F9F1FFC01EE5FFE4F808186FFA7
:1003C00012C080910101082E000C990BFC01EE0F68
:1003D000FF1F8E0F9F1FFC01EE5FFE4F808161E0CB
:1003E0008F730E948700FF91EF91BF91AF919F9112
:1003F0008F917F916F915F914F913F912F910F90CE
:100400000FBE0F901F901895789484B5826084BDBC
:1004100084B5816084BD85B5826085BD85B5816008
:1004200085BD80916E00816080936E001092810086
:100430008091810082608093810080918100816041
:100440008093810080918000816080938000809102
:10045000B10084608093B1008091B000816080938E
:10046000B00080917A00846080937A0080917A0055
:10047000826080937A0080917A00816080937A0014
:1004800080917A00806880937A001092C100109267
:100490002A0110922901809126018C3008F068C051
:1004A000EAE9F0E02491E6E8F0E08491882399F00D
:1004B00090E0880F991FFC01E859FF4FA591B49176
:1004C000FC01EE58FF4F859194918FB7F894EC9111
:1004D000E22BEC938FBF80912601E82FF0E09F0183
:1004E000220F331FE20FF31FEE5FFE4F9081907CCF
:1004F0009A60908310922701109228016CE00E946C
:10050000F5032CE0829FB001112440E050E09B01F4
:10051000240F351FF901EE0FFF1F2E0F3F1FF901AA
:10052000EE5FFE4F908196FD16C04F5F5F4F4C30DF
:10053000510569F781110FC01092800082E080930D
:1005400081001092850010928400B19A80916F0012
:10055000826080936F00E0912601F0E0CF01880F68
:10056000991FE80FF91FEE5FFE4F80818064808342
:100570006091290170912A01603282E078070CF0C5
:1005800040C077FD06C0653B71052CF064EB70E060
:1005900002C060E070E080912701A8E8B0E06D0142
:1005A000C81AD10887FDD394D601AA0FBB1FAA0F82
:1005B000BB1F6D01BB0FEE08FF088091280108E505
:1005C00012E0081B110987FD1395000F111F000F82
:1005D000111F012E000C220B330BA90198012C19BD
:1005E0003D094E095F09DB010E94BC0324EB30E0AA
:1005F00040E050E00E949203C20ED31EE41EF51E9E
:10060000B601A0912601AC3090F52091270188E831
:1006100090E0821B910927FD9395880F991F880F01
:10062000991F681779078CF08091280128E532E03E
:10063000281B310987FD3395220F331F220F331FEB
:10064000CB01261737070CF4C9010297880F991FB1
:100650004FB7F8942A2F30E0F901EE0FFF1F2E0F4D
:100660003F1FF901EE5FFE4F928381834FBF00E091
:1006700010E08091290190912A01843B910534F486
:10068000059690932A018093290104C010922A01B3
:10069000109229010E94D4006B017C0184E6882E0F
:1006A000912CA12CB12C0E94D400DC01CB018C191F
:1006B0009D09AE09BF09883E9340A105B10598F395
:1006C00091E0891A9108A108B10828EEC20E23E032
:1006D000D21EE11CF11C81149104A104B10419F78C
:1006E0000115110531F20E940000C3CF8091000175
:1006F0008C30A0F491E0980F909300018093260134
:1007000090E0FC01EE0FFF1F8E0F9F1FFC01EE5FBC
:10071000FE4F88EB9BE09283818308958FEF809357
:1007200026010895052E97FB1EF400940E94A9034C
:1007300057FD07D00E94C40307FC03D04EF40C946D
:10074000A90350954095309521953F4F4F4F5F4FEE
:10075000089590958095709561957F4F8F4F9F4F2D
:1007600008950E94E603A59F900DB49F900DA49F4D
:10077000800D911D11240895B7FF0C94B1030E94C0
:10078000B103821B930B0895A1E21A2EAA1BBB1B77
:10079000FD010DC0AA1FBB1FEE1FFF1FA217B3074D
:1007A000E407F50720F0A21BB30BE40BF50B661F63
:1007B000771F881F991F1A9469F760957095809527
:1007C00090959B01AC01BD01CF010895A29FB0019E
:1007D000B39FC001A39F700D811D1124911DB29F75
:1007E000700D811D1124911D0895991B79E004C09D
:1007F000991F961708F0961B881F7A95C9F7809560
:100800000895EE0FFF1F0590F491E02D0994F894E0
:02081000FFCF18
:00000001FF
