:100000000C946D000C9495000C9495000C94B7031F
:100010000C94B7030C94B7030C9495000C949500C2
:100020000C9495000C9495000C9495000C949500FC
:100030000C9495000C9495000C9495000C949500EC
:100040000C946D030C9495000C9495000C94950001
:100050000C9495000C9495000C9495000C949500CC
:100060000C9495000C94950098019F01AB01BC0184
:10007000BE01C501D101E201F801FA010000000052
:10008000240027002A0000000000250028002B0083
:1000900000000000230026002900040404040404D6
:1000A0000404020202020202030303030303010227
:1000B00004081020408001020408102001020408F6
:1000C00010200000000800020100000304070000E7
:1000D0000000000000009B05530611241FBECFEF57
:1000E000D8E0DEBFCDBF11E0A0E0B1E0E0EEFDE082
:1000F00002C005900D92AC32B107D9F721E0ACE215
:10010000B1E001C01D92A43BB207E1F710E0CCE6DC
:10011000D0E004C02197FE010E94A206CB36D10791
:10012000C9F70E9431040C94E3060C94000083305C
:1001300081F028F4813099F08230A1F00895873061
:10014000A9F08830B9F08430D1F4809180008F7D9F
:1001500003C0809180008F7780938000089584B5DC
:100160008F7702C084B58F7D84BD08958091B000E3
:100170008F7703C08091B0008F7D8093B000089589
:10018000CF93DF93282F30E0F901EE53FF4F849196
:10019000F901E255FF4FD491F901E656FF4FC491A2
:1001A000CC2391F081110E949700EC2FF0E0EE0F2C
:1001B000FF1FE057FF4FA591B491EC91ED2381E033
:1001C00090E021F480E002C080E090E0DF91CF91E8
:1001D00008951F93CF93DF93282F30E0F901EE535A
:1001E000FF4F8491F901E255FF4FD491F901E65692
:1001F000FF4FC491CC23C1F0162F81110E949700AC
:10020000EC2FF0E0EE0FFF1FEA57FF4FA591B491DE
:100210009FB7F894111104C08C91D095D82302C0D7
:10022000EC91DE2BDC939FBFDF91CF911F9108955E
:10023000CF93DF93EC018091A2019091A3010297EB
:1002400009F5C130D10569F024F42097D9F460E0B4
:1002500009C0C230D10561F0C330D10599F460E026
:1002600008C061E08091A6010E94E90061E006C03B
:1002700061E08091A6010E94E90060E08091A80100
:100280000E94E9008091A2019091A301049709F0D6
:100290003FC0C130D105B9F04CF42097C9F561E0F9
:1002A0008091A6010E94E90060E013C0C230D10530
:1002B000D9F0C330D10561F561E08091A6010E94BB
:1002C000E90060E017C060E08091A6010E94E900AB
:1002D00061E08091A8010E94E90061E08091AA019B
:1002E0000E94E90060E010C060E08091A6010E94D9
:1002F000E90061E08091A8010E94E90060E080913E
:10030000AA010E94E90061E08091AC010E94E9002D
:100310008091A2019091A301059709F086C0CA308F
:10032000D10508F082C0FE01EC5CFF4F0C94A206E0
:1003300060E08091A6010E94E90061E061C060E098
:100340008091A6010E94E90061E08091A8010E94CD
:10035000E90060E05AC060E08091A6010E94E900D7
:1003600061E08091A8010E94E90060E08091AA010B
:100370000E94E90061E04EC060E001C061E0809150
:10038000A6010E94E90061E006C061E08091A6013B
:100390000E94E90060E08091A8010E94E90060E00D
:1003A0000BC061E08091A6010E94E90060E08091AD
:1003B000A8010E94E90061E08091AA010E94E90081
:1003C00061E010C061E08091A6010E94E90060E058
:1003D0008091A8010E94E90061E08091AA010E9439
:1003E000E90060E08091AC010E94E90060E017C084
:1003F00061E001C060E08091A6010E94E90060E038
:100400008091A8010E94E90061E08091AA010E9408
:10041000E90060E08091AC010E94E90061E0809118
:10042000AE01DF91CF910C94E900DF91CF91089557
:10043000CF93DF9390E0FC01E255FF4F2491FC0144
:10044000E656FF4F8491882361F190E0880F991F51
:10045000FC01E458FF4FC591D491FC01EA57FF4FCE
:10046000A591B491611109C09FB7F8948881209536
:1004700082238883EC912E230BC0623061F49FB7F6
:10048000F8948881322F309583238883EC912E2B2A
:100490002C939FBF06C08FB7F894E8812E2B28833A
:1004A0008FBFDF91CF9108953FB7F8948091770186
:1004B00090917801A0917901B0917A0126B5A89B1D
:1004C00005C02F3F19F00196A11DB11D3FBFBA2FE6
:1004D000A92F982F8827820F911DA11DB11DBC0146
:1004E000CD0142E0660F771F881F991F4A95D1F70B
:1004F0000895CF92DF92EF92FF920F931F93CF93C5
:10050000DF936C017A018B01C0E0D0E0CE15DF05EE
:1005100081F0D8016D918D01D601ED91FC91019092
:10052000F081E02DC6010995892B11F02196EECFBF
:100530007E01C701DF91CF911F910F91FF90EF9046
:10054000DF90CF90089520916E0130916F012817B0
:10055000390771F490916D0180916C01981741F009
:10056000E0916D01F0E0E45DFE4F808190E0089540
:100570008FEF9FEF089508951F93CF93DF93DC01D2
:100580005C968D919C915D97009739F421E030E065
:1005900013963C932E9312973BC05196ED91FC918C
:1005A000529750962C915097322F30951FB75E96E8
:1005B0004C915E97742F727041FD6095F894408164
:1005C000772311F0422B01C043234083EC01219794
:1005D000F1F748E0508160FF02C0522B01C0532365
:1005E0005083EC012197F1F76695415099F780818E
:1005F000772319F08323808302C0282B20831FBF19
:100600005C968D919C915D970197F1F781E090E068
:10061000DF91CF911F91089520916E0130916F016C
:100620002817390771F480916C0120916D0190E0D9
:10063000805C9F4F821B910960E470E00E946F060E
:10064000089580E090E0089520916E0130916F014F
:1006500028173907B9F490916D0180916C019817B2
:1006600089F0E0916D01F0E0E45DFE4F8081209122
:100670006D0130E02F5F3F4F2F73332720936D01C3
:1006800090E008958FEF9FEF0895089580E090E047
:100690000895CF93DF93009779F0FC01019000203B
:1006A000E9F73197AF01481B590BBC018BE791E08B
:1006B0000E947902EC0102C0C0E0D0E042E050E0CC
:1006C00062E171E08BE791E00E9479028C0F9D1F3F
:1006D000DF91CF9108950E94DE061F920F920FB610
:1006E0000F9211242F933F938F939F93AF93BF93B8
:1006F0008091730190917401A0917501B091760180
:100700003091720123E0230F2D3720F40196A11DB3
:10071000B11D05C026E8230F0296A11DB11D20932F
:1007200072018093730190937401A0937501B0934B
:1007300076018091770190917801A0917901B09133
:100740007A010196A11DB11D8093770190937801E4
:10075000A0937901B0937A01BF91AF919F918F914E
:100760003F912F910F900FBE0F901F9018951F92E1
:100770000F920FB60F9211242F933F934F935F93D5
:100780006F937F938F939F93AF93BF93EF93FF9359
:10079000E0916E01F0916F01309709F451C0968D90
:1007A000A685B785858591FF04C09C91892329F48E
:1007B00047C09C91892309F043C0A389B4899C91C7
:1007C0008589809589238C93868997890197F1F78C
:1007D000608D718DA685B785558538E020E0CB0109
:1007E0000197F1F7822F90E095958795282F4C91EE
:1007F000452309F02068315091F7868D81FD2095C1
:1008000080916C0190E001968F73992730916D0172
:10081000381749F0A0916C01B0E0A45DBE4F2C9355
:1008200080936C0103C0868D8160868F828D938D4D
:100830000197F1F7A389B4899C918589892B8C93C1
:10084000FF91EF91BF91AF919F918F917F916F91A8
:100850005F914F913F912F910F900FBE0F901F907E
:100860001895789484B5826084BD84B5816084BD18
:1008700085B5826085BD85B5816085BD80916E003E
:10088000816080936E00109281008091810082606F
:1008900080938100809181008160809381008091AC
:1008A00080008160809380008091B100846080939B
:1008B000B1008091B00081608093B00080917A0097
:1008C000846080937A0080917A00826080937A00BD
:1008D00080917A00816080937A0080917A008068AC
:1008E00080937A001092C1002091A0013091A10163
:1008F000032E000C440B550B60E077E883E993E08E
:100900000E948306CA01B90126E030E040E050E0D1
:100910000E94830620939C0130939D0140939E0189
:1009200050939F0160E08EE00E94180260E08FE02B
:100930000E94180260E080E10E94180281E090E0CD
:10094000909371018093700194E0292E312C2AE05C
:10095000822E912CC0E0D0E00FEF1FEFAA24A394C9
:10096000B12C8EE00E94C0007C01019741F48AE125
:1009700091E00E944903F0927101E09270018EE0D3
:100980000E94C0000197D9F38FE00E94C000019738
:1009900041F485E191E00E944903109371010093B5
:1009A00070018FE00E94C0000197D9F380E10E949E
:1009B000C000019741F484E291E00E944903109243
:1009C00071011092700180E10E94C0000197D9F37B
:1009D00080917001909171017C0197FF04C0EE2419
:1009E000FF24E81AF90A181619062CF4B0929B0194
:1009F000A0929A0106C0892B21F010929B011092BF
:100A00009A01E114F10409F46AC00E945402409072
:100A1000B0015090B1016090B2017090B3019B01A0
:100A2000AC01241935094609570940909C015090A2
:100A30009D0160909E0170909F012415350546052B
:100A40005705F8F26093B0017093B1018093B20141
:100A50009093B30120919A0130919B018091A40160
:100A60009091A5012130310589F401969093A5015B
:100A70008093A4012091A0013091A10182179307D6
:100A8000C1F41092A5011092A40113C0892B41F466
:100A90008091A0019091A1019093A5018093A40160
:100AA0008091A4019091A50101979093A501809355
:100AB000A40181E0E81AF1082091A2013091A3017C
:100AC0008091A4019091A5012530310511F4B40164
:100AD00001C0B1010E946F060E94180192CF0E94CE
:100AE00054022B013C0184E1C82ED12CE12CF12CC5
:100AF0000E945402DC01CB0184199509A609B709AB
:100B0000883E9340A105B10598F321E0C21AD108AF
:100B1000E108F10888EE480E83E0581E611C711C44
:100B2000C114D104E104F10419F7209709F419CF95
:100B30000E94000016CF10927E0110927D0188EE77
:100B400093E0A0E0B0E080937F0190938001A093B8
:100B50008101B093820184E091E090937C018093C5
:100B60007B011092920110929101109294011092C7
:100B70009301109296011092950110929801109293
:100B80009701609199016E7F6D7F609399016695E1
:100B9000617081E068278DE00E94E90061E08DE0EE
:100BA0000E941802EBEBF0E0E491E0938B01E7EA9E
:100BB000F0E0E491F0E0EE0FFF1FEA57FF4F859160
:100BC000949190938D0180938C0160E08CE00E9461
:100BD00018028091990181FD04C061E08CE00E94BF
:100BE000E9008CE080938701EAEBF0E0E491E09388
:100BF0008801E6EAF0E0E491F0E0EE0FFF1FE05735
:100C0000FF4F8591949190938A018093890110926E
:100C1000A5011092A40110929B0110929A011092CA
:100C2000B0011092B1011092B2011092B30184E2AE
:100C300090E09093A1018093A00188E090E09093D0
:100C4000A7018093A60189E090E09093A901809389
:100C5000A8018AE090E09093AB018093AA018BE019
:100C600090E09093AD018093AC0161E088E00E9438
:100C7000180261E08091A8010E94180261E0809151
:100C8000AA010E94180261E08091AC010E94180242
:100C90001092AF011092AE0184E090E09093A30116
:100CA0008093A201089584E091E090937C01809369
:100CB0007B0180916E0190916F018B57914071F48F
:100CC000E0918E01F0918F0190818091900180954B
:100CD0008923808310926F0110926E01089597FB13
:100CE000072E16F4009407D077FD09D00E94A806BD
:100CF00007FC05D03EF4909581959F4F089570951F
:100D000061957F4F0895052E97FB1EF400940E9475
:100D10009A0657FD07D00E94BC0607FC03D04EF48C
:100D20000C949A0650954095309521953F4F4F4F22
:100D30005F4F089590958095709561957F4F8F4F87
:100D40009F4F0895EE0FFF1F0590F491E02D099439
:100D5000AA1BBB1B51E107C0AA1FBB1FA617B707E1
:100D600010F0A61BB70B881F991F5A95A9F78095FD
:100D70009095BC01CD010895A1E21A2EAA1BBB1BC0
:100D8000FD010DC0AA1FBB1FEE1FFF1FA217B30757
:100D9000E407F50720F0A21BB30BE40BF50B661F6D
:100DA000771F881F991F1A9469F760957095809531
:100DB00090959B01AC01BD01CF01089581E090E0C9
:100DC000F8940C94E30610E0CCE6D0E004C0FE01F9
:100DD0000E94A2062196CD36D107C9F7F894FFCF1D
:100DE00000000000BC0279024603BB020C0324038E
:100DF000A3020D0A00416E746920436C6F636B7728
:0C0E000069736500506175736564000043
:107E0000112484B714BE81FFF0D085E080938100F7
:107E100082E08093C00088E18093C10086E0809377
:107E2000C20080E18093C4008EE0C9D0259A86E02C
:107E300020E33CEF91E0309385002093840096BBD3
:107E4000B09BFECF1D9AA8958150A9F7CC24DD24C4
:107E500088248394B5E0AB2EA1E19A2EF3E0BF2EE7
:107E6000A2D0813461F49FD0082FAFD0023811F036
:107E7000013811F484E001C083E08DD089C08234E0
:107E800011F484E103C0853419F485E0A6D080C0E4
:107E9000853579F488D0E82EFF2485D0082F10E0AE
:107EA000102F00270E291F29000F111F8ED06801E7
:107EB0006FC0863521F484E090D080E0DECF843638
:107EC00009F040C070D06FD0082F6DD080E0C81688
:107ED00080E7D80618F4F601B7BEE895C0E0D1E017
:107EE00062D089930C17E1F7F0E0CF16F0E7DF06D8
:107EF00018F0F601B7BEE89568D007B600FCFDCFD4
:107F0000A601A0E0B1E02C9130E011968C91119780
:107F100090E0982F8827822B932B1296FA010C0160
:107F200087BEE89511244E5F5F4FF1E0A038BF0790
:107F300051F7F601A7BEE89507B600FCFDCF97BE46
:107F4000E89526C08437B1F42ED02DD0F82E2BD052
:107F50003CD0F601EF2C8F010F5F1F4F84911BD097
:107F6000EA94F801C1F70894C11CD11CFA94CF0C13
:107F7000D11C0EC0853739F428D08EE10CD085E9AC
:107F80000AD08FE07ACF813511F488E018D01DD067
:107F900080E101D065CF982F8091C00085FFFCCF94
:107FA0009093C60008958091C00087FFFCCF809118
:107FB000C00084FD01C0A8958091C6000895E0E648
:107FC000F0E098E1908380830895EDDF803219F02E
:107FD00088E0F5DFFFCF84E1DECF1F93182FE3DFCA
:107FE0001150E9F7F2DF1F91089580E0E8DFEE27F6
:047FF000FF270994CA
:027FFE00040479
:0400000300007E007B
:00000001FF
