:100000000C9463000C948B000C948B000C942F03C5
:100010000C942F030C942F030C948B000C948B00E6
:100020000C948B000C948B000C948B000C948B0024
:100030000C948B000C948B000C948B000C948B0014
:100040000C94E5020C948B000C948B000C948B00A8
:100050000C948B000C948B000C948B000C948B00F4
:100060000C948B000C948B000000000024002700EF
:100070002A0000000000250028002B0000000000DE
:1000800023002600290004040404040404040202DA
:100090000202020203030303030301020408102007
:1000A0004080010204081020010204081020000012
:1000B0000008000201000003040700000000000027
:1000C000000002066F0611241FBECFEFD8E0DEBF8E
:1000D000CDBF11E0A0E0B1E0EAEDFDE002C0059087
:1000E0000D92AC3AB107D9F722E0ACEAB1E001C019
:1000F0001D92AE31B207E1F710E0C2E6D0E004C0D5
:100100002197FE010E94D506C136D107C9F70E948A
:10011000A9030C94E0060C940000833081F028F4CD
:10012000813099F08230A1F008958730A9F08830AD
:10013000B9F08430D1F4809180008F7D03C080912C
:1001400080008F7780938000089584B58F7702C0F8
:1001500084B58F7D84BD08958091B0008F7703C0F2
:100160008091B0008F7D8093B0000895CF93DF938E
:10017000282F30E0F901E255FF4F8491F901E6564E
:10018000FF4FD491F901EA57FF4FC491CC2391F06E
:1001900081110E948D00EC2FF0E0EE0FFF1FE4585C
:1001A000FF4FA591B491EC91ED2381E090E021F413
:1001B00080E002C080E090E0DF91CF9108951F932E
:1001C000CF93DF93282F30E0F901E255FF4F849160
:1001D000F901E656FF4FD491F901EA57FF4FC49158
:1001E000CC23C1F0162F81110E948D00EC2FF0E07E
:1001F000EE0FFF1FEE58FF4FA591B4919FB7F894F3
:10020000111104C08C91D095D82302C0EC91DE2B43
:10021000DC939FBFDF91CF911F910895CF93DF9320
:1002200090E0FC01E656FF4F2491FC01EA57FF4F96
:100230008491882361F190E0880F991FFC01E859AF
:10024000FF4FC591D491FC01EE58FF4FA591B49199
:10025000611109C09FB7F894888120958223888313
:10026000EC912E230BC0623061F49FB7F894888123
:10027000322F309583238883EC912E2B2C939FBFB4
:1002800006C08FB7F894E8812E2B28838FBFDF91AB
:10029000CF9108953FB7F8948091FB019091FC01B4
:1002A000A091FD01B091FE0126B5A89B05C02F3F8E
:1002B00019F00196A11DB11D3FBFBA2FA92F982F8C
:1002C0008827820F911DA11DB11DBC01CD0142E007
:1002D000660F771F881F991F4A95D1F70895CF920F
:1002E000DF92EF92FF920F931F93CF93DF936C01F6
:1002F0007A018B01C0E0D0E0CE15DF0581F0D80196
:100300006D918D01D601ED91FC910190F081E02D70
:10031000C6010995892B11F02196EECF7E01C70108
:10032000DF91CF911F910F91FF90EF90DF90CF90D1
:1003300008952091EE013091EF012817390771F4EB
:100340009091EC018091ED01981741F0E091EC0162
:10035000F0E0E455FE4F808190E008958FEF9FEF2D
:10036000089508951F93CF93DF93DC015C968D91E0
:100370009C915D97009739F421E030E013963C930F
:100380002E9312973BC05196ED91FC915297509647
:100390002C915097322F30951FB75E964C915E97F7
:1003A000742F727041FD6095F8944081772311F0AD
:1003B000422B01C043234083EC012197F1F748E031
:1003C000508160FF02C0522B01C053235083EC01C7
:1003D0002197F1F76695415099F78081772319F0BD
:1003E0008323808302C0282B20831FBF5C968D91BE
:1003F0009C915D970197F1F781E090E0DF91CF91BB
:100400001F9108952091EE013091EF0128173907CF
:1004100071F48091ED012091EC0190E0805C9F4FA0
:10042000821B910960E470E00E948B06089580E0D1
:1004300090E008952091EE013091EF0128173907DF
:10044000B9F49091EC018091ED01981789F0E09159
:10045000EC01F0E0E455FE4F80812091EC0130E0AA
:100460002F5F3F4F2F7333272093EC0190E00895C7
:100470008FEF9FEF0895089580E090E00895009732
:1004800069F0FC0101900020E9F73197AF01481BAA
:10049000590BBC018FEF91E00C946F0180E090E06C
:1004A00008958F929F92AF92BF920F931F93CF9315
:1004B000DF93CDB7DEB7A1970FB6F894DEBF0FBEBE
:1004C000CDBF19A2423008F44AE08E010F5D1F4FE4
:1004D000842E912CA12CB12CA50194010E949F0681
:1004E000E62FB901CA0101501109EA3014F4E05DA8
:1004F00001C0E95CD801EC93232B242B252B61F759
:10050000C8010E943F02A1960FB6F894DEBF0FBE4D
:10051000CDBFDF91CF911F910F91BF90AF909F9072
:100520008F900895CF92DF92EF92FF92CF93DF9357
:100530006B017C016DE28FEF91E00E94B201EC0152
:1005400066277727CB016C197D098E099F094AE040
:100550000E9451028C0F9D1FDF91CF91FF90EF9071
:10056000DF90CF900895CF93DF930E943F02EC017C
:1005700082E191E00E943F028C0F9D1FDF91CF919D
:100580000895CF93DF93BC01990F880B990B97FFC8
:1005900003C00E94920203C04AE00E945102EC0193
:1005A00082E191E00E943F028C0F9D1FDF91CF916D
:1005B0000895BC01990F880B990B97FD0C9492023A
:1005C0004AE00C9451020E94DB061F920F920FB674
:1005D0000F9211242F933F938F939F93AF93BF93C9
:1005E0008091F7019091F801A091F901B091FA0181
:1005F0003091F60123E0230F2D3720F40196A11D41
:10060000B11D05C026E8230F0296A11DB11D209340
:10061000F6018093F7019093F801A093F901B0934C
:10062000FA018091FB019091FC01A091FD01B09134
:10063000FE010196A11DB11D8093FB019093FC0169
:10064000A093FD01B093FE01BF91AF919F918F9157
:100650003F912F910F900FBE0F901F9018951F92F2
:100660000F920FB60F9211242F933F934F935F93E6
:100670006F937F938F939F93AF93BF93EF93FF936A
:10068000E091EE01F091EF01309709F451C0968DA1
:10069000A685B785858591FF04C09C91892329F49F
:1006A00047C09C91892309F043C0A389B4899C91D8
:1006B0008589809589238C93868997890197F1F79D
:1006C000608D718DA685B785558538E020E0CB011A
:1006D0000197F1F7822F90E095958795282F4C91FF
:1006E000452309F02068315091F7868D81FD2095D2
:1006F0008091ED0190E001968F7399273091EC0184
:10070000381749F0A091ED01B0E0A455BE4F2C93ED
:100710008093ED0103C0868D8160868F828D938DDD
:100720000197F1F7A389B4899C918589892B8C93D2
:10073000FF91EF91BF91AF919F918F917F916F91B9
:100740005F914F913F912F910F900FBE0F901F908F
:100750001895789484B5826084BD84B5816084BD29
:1007600085B5826085BD85B5816085BD80916E004F
:10077000816080936E001092810080918100826080
:1007800080938100809181008160809381008091BD
:1007900080008160809380008091B10084608093AC
:1007A000B1008091B00081608093B00080917A00A8
:1007B000846080937A0080917A00826080937A00CE
:1007C00080917A00816080937A0080917A008068BD
:1007D00080937A001092C10010921A0210921902AE
:1007E000109218021092170210921602109215021F
:1007F0008DE991E090931C0280931B0290910B0273
:10080000963108F058C02DEB30E03093160220935B
:1008100015022BE931E030931802209317022CE2E5
:1008200031E030931A022093190240916800983009
:1008300058F031E09E3008F430E021E0822F01C012
:10084000880F3A95EAF701C084E0842B8093680012
:10085000983038F09E3040F0963148F020E030E09B
:1008600008C02DE630E005C02BE630E002C02CE6E3
:1008700030E03093130220931202983030F481E07C
:1008800001C0880F9A95EAF70EC0292F30E09E30FC
:1008900018F42850310902C02E50310981E001C0FE
:1008A000880F2A95EAF78093140280911B02909199
:1008B0001C020197F1F78091190290911A02892B7D
:1008C00049F1E091EE01F091EF0121E0EF3FF207F5
:1008D00009F1309739F0A389B4899C918589809575
:1008E00089238C9380911D028E7F80931D0210922C
:1008F000ED011092EC018FEF91E09093EF01809366
:10090000EE01E0911202F0911302908180911402A5
:10091000892B808361E08AE00E940E0161E086E01D
:100920000E940E0161E087E00E940E0160E08FE00E
:100930000E940E0160E08EE00E940E0160E080E106
:100940000E940E0160E081E10E940E018FEF90E0B5
:100950009093F3018093F2011092F4011092F5014B
:1009600061E08AE00E940E0161E08AE00E94DF00FF
:10097000DD24D39408EB10E090E0E92E90E0F92E0E
:100980008FE00E94B6000197A1F485E191E00E94FA
:100990003F028091F501811103C085E391E002C01F
:1009A00081E591E00E94B3028091F5018D2580934D
:1009B000F5018FE00E94B6000197D9F38EE00E9406
:1009C000B600019721F58091F4018D258093F40103
:1009D000882389F08DE691E00E94B3028091F201B4
:1009E0009091F3019093F1018093F0011092F30143
:1009F0001092F2010CC084E791E00E94B302809152
:100A0000F0019091F1019093F3018093F2018EE057
:100A10000E94B6000197D9F381E10E94B6000197C8
:100A200029F58091F401811121C08CE791E00E94A9
:100A30003F028091F2019091F3010E94D9028091CE
:100A4000F2019091F3010A968F3F910509F024F489
:100A50009093F3018093F20181E991E00E943F02BB
:100A60008091F2019091F3010E94C10281E10E9404
:100A7000B6000197D9F380E10E94B600019741F5D5
:100A80008091F401811124C086E991E00E943F0227
:100A90008091F2019091F3010E94D9028091F201BC
:100AA0009091F3010A9797FD05C09093F30180930D
:100AB000F20104C01092F3011092F20181E991E079
:100AC0000E943F028091F2019091F3010E94C102C5
:100AD00080E10E94B6000197D9F30E944A014B01C0
:100AE0005C0184E1482E512C612C712C0E944A013A
:100AF000DC01CB0188199909AA09BB09883E9340FA
:100B0000A105B10598F381E0481A51086108710800
:100B1000E8EE8E0EE3E09E1EA11CB11C41145104B0
:100B20006104710419F78091F501811106C060E03C
:100B300086E00E94DF0061E005C061E086E00E947F
:100B4000DF0060E087E00E94DF00C091F201D091F9
:100B5000F30161E08AE00E940E01209711F460E049
:100B600004C0CF3FD10529F461E08AE00E94DF0094
:100B700042C0F80184918330F9F048F48130B9F033
:100B80008230A1F584B5806284BDC8BD34C0873091
:100B9000E9F0883019F1843049F580918000806255
:100BA00080938000D0938B00C0938A0024C084B5CA
:100BB000806884BDC7BD1FC080918000806880931D
:100BC0008000D0938900C093880015C08091B00048
:100BD00080688093B000C093B3000DC08091B000D6
:100BE00080628093B000C093B40005C0C038D105C6
:100BF0000CF0BACFB4CFE114F10409F4C1CE0E94D5
:100C00000000BECE109202021092010288EE93E024
:100C1000A0E0B0E08093030290930402A093050249
:100C2000B093060284E091E0909300028093FF016C
:100C300010921602109215021092180210921702CA
:100C400010921A021092190210921C0210921B02AA
:100C500060911D026E7F6D7F60931D0266956170CD
:100C600081E068278DE00E94DF0061E08DE00E9456
:100C70000E01E7EAF0E0E491E0930F02E3E9F0E02F
:100C8000E491F0E0EE0FFF1FEE58FF4F8591949135
:100C9000909311028093100260E08CE00E940E019C
:100CA00080911D0281FD04C061E08CE00E94DF00A4
:100CB0008CE080930B02E6EAF0E0E491E0930C0212
:100CC000E2E9F0E0E491F0E0EE0FFF1FE458FF4F9F
:100CD0008591949190930E0280930D02089584E083
:100CE00091E0909300028093FF018091EE0190913A
:100CF000EF018F5F914071F4E0911202F0911302C5
:100D00009081809114028095892380831092EF0155
:100D10001092EE01089597FB072E16F4009407D069
:100D200077FD09D00E94C10607FC05D03EF49095DE
:100D300081959F4F0895709561957F4F0895A1E229
:100D40001A2EAA1BBB1BFD010DC0AA1FBB1FEE1F45
:100D5000FF1FA217B307E407F50720F0A21BB30B90
:100D6000E40BF50B661F771F881F991F1A9469F70C
:100D700060957095809590959B01AC01BD01CF0168
:100D80000895AA1BBB1B51E107C0AA1FBB1FA617D2
:100D9000B70710F0A61BB70B881F991F5A95A9F724
:100DA00080959095BC01CD010895EE0FFF1F059031
:100DB000F491E02D099481E090E0F8940C94E00621
:100DC00010E0C2E6D0E004C0FE010E94D5062196E4
:0A0DD000C336D107C9F7F894FFCF2E
:100DDA0000000000B2016F013C02B10102021A02D6
:100DEA0099010D0A004368616E67696E6720526F48
:100DFA007461746520446972656374696F6E204614
:100E0A00726F6D2000436C6F636B77697365207432
:100E1A006F20416E74692D436C6F636B77697365DC
:100E2A0000416E74692D436C6F636B77697365203B
:100E3A00746F20436C6F636B7769736500506175DB
:100E4A0073656400526573756D656400496E6372FB
:100E5A00656173652073706565642066726F6D20C5
:100E6A000020746F200044656372656173652073A6
:0C0E7A00706565642066726F6D200000DA
:00000001FF
